:020000040800F2
:10000000D80600208D01000895010008970100081E
:10001000990100089B0100089D01000800000000F4
:100020000000000000000000000000009F01000828
:10003000A101000800000000A3010008A5010008BC
:10004000A7010008A7010008A7010008A7010008F0
:10005000A7010008A7010008A7010008A7010008E0
:10006000A70100081F0D0008A7010008A70100084C
:10007000A7010008A7010008A7010008A7010008C0
:10008000A7010008A7010008A7010008A7010008B0
:10009000A7010008A7010008A7010008A7010008A0
:1000A000A7010008A7010008A7010008A701000890
:1000B000A7010008190F0008A7010008A701000800
:1000C000A7010008A7010008A7010008A701000870
:1000D000A7010008A7010008790B0008A701000884
:1000E000A7010008A7010008A701000800F002F816
:1000F00000F03CF80AA090E8000C82448344AAF186
:100100000107DA4501D100F031F8AFF2090EBAE883
:100110000F0013F0010F18BFFB1A43F0010318473B
:10012000E417000004180000103A24BF78C878C112
:10013000FAD8520724BF30C830C144BF04680C60ED
:10014000704700000023002400250026103A28BF35
:1001500078C1FBD8520728BF30C148BF0B60704739
:100160001FB501F042FB1FBD10B510BD00F0E3FF4D
:100170001146FFF7F5FF00F00FFF01F001F803B49F
:10018000FFF7F2FF03BC01F00BF8000009488047BD
:1001900009480047FEE7FEE7FEE7FEE7FEE7FEE769
:1001A000FEE7FEE7FEE7FEE704480549054A064B81
:1001B0007047000095020008ED000008D8000020FC
:1001C000D8060020D8020020D802002000210020FC
:1001D000674A126842F48032654B1A6000BF644A75
:1001E000126802F40030491C10B9B1F5A06FF6D1C5
:1001F0005F4A126812F4003F01D0012000E00020A5
:10020000012842D15B4A126842F01002594B1A6031
:100210001A46126822F003021A601A46126842F067
:1002200002021A60524A5268514B5A601A4652688A
:100230005A601A46526842F480625A601A465268FE
:1002400022F47C125A601A46526842F4E8125A604C
:100250001A46126842F080721A6000BF444A12685F
:1002600012F0007FFAD0424A526822F00302404B5B
:100270005A601A46526842F002025A6000BF3C4A75
:10028000526802F00C02082AF9D1704710B5FFF746
:100290009DFF10BD10B53648006840F0010034499C
:1002A00008600846406834490840314948600846BB
:1002B0000068324908402E4908600846006820F46A
:1002C000802008600846406820F4FE0048604FF433
:1002D0001F008860FFF7DAFF4FF0006028490860D0
:1002E00010BD10B5002100200022214B5B6803F0F7
:1002F0000C0121B1042906D0082928D107E0214B9F
:10030000214C236027E01F4B1F4C236023E0184B38
:100310005B6803F47010164B5B6803F480320223B1
:1003200003EB904022B9194B4343174C23600DE077
:100330000F4B5B6813F4003F04D0144B4343124C43
:10034000236003E00F4B43430F4C236003E00D4B4E
:100350000D4C236000BF00BF054B5B68C3F3031364
:100360000B4CE15C084B1B68CB40074C236010BD75
:1003700000100240002002400000FFF8FFFFF6FEE0
:1003800008ED00E000127A000000002000093D00A6
:10039000040000204348006840F480004249C1F84E
:1003A0000804704700B54148C06840F400703F49F8
:1003B000C8600846C06820F40070C86008464068FD
:1003C00020F4404048600846406840F400404860DF
:1003D00088153749086037483349C1F808044FF495
:1003E00000103549086042F2015034490860344831
:1003F0002D49C1F810040846D0F8080440F0010067
:10040000C1F808040846D0F8080440F0080025495F
:10041000086000BF2348006810F0080FFAD1214897
:10042000006840F004002049C1F8080400BF1D48DE
:10043000006810F0040FFAD1FFF7ACFF00BD0146D1
:100440001E48006820F01F00174AC2F83404104606
:10045000D0F8340440EA0100C2F834041046D0F861
:10046000080440F48000C2F8080400BF1548006882
:1004700010F0020FFAD01448006880B2704710B52F
:100480000246114606E0114B33F81130034498B28E
:10049000CB1CD9B20629F6DB034600EBD074601002
:1004A00010BD00000824014000200140001002405F
:1004B0000424014002011E002C2401403424014088
:1004C0003800003F002401404C2401404C00002033
:1004D00063486449C86140F21D2088610120486179
:1004E0000020C860C860086108614FF080605E4904
:1004F00048605E485E4908605E485B49C1F8040890
:100500005D485E4908605E4801F1040108604FF0F3
:1005100000005C4908605348806940F480405149BC
:1005200088615148D0F8040820F47F604E49C1F832
:1005300004080846D0F8040840F496605249086060
:100540004FF0010051490860704700B9704700EB57
:10055000C00189004FF0E0225161002191611146F4
:10056000096941F00501116100BF4FF0E0210969FF
:1005700011F4803FF9D04FF0E021096921F0010129
:100580004FF0E022116100BFE0E700B970470021A1
:100590004FF0E02291611146096941F005011161B6
:1005A0000BE048F6A0414FF0E022516100BF4FF050
:1005B000E021096911F4803FF9D00100A0F10100A8
:1005C000EFD14FF0E021096921F001014FF0E02265
:1005D000116100BFDAE700B5034603B900BD03E0CF
:1005E0004FF47A70FFF7D1FF1800A3F10103F7D1A0
:1005F00000BFF3E7704710B503460C460CE02448F3
:10060000006808B9012000E0002021490860204668
:10061000FFF79BFF581E83B2002BF0DC01201C4922
:10062000086010BD6FF07F404FF0E021486100206E
:1006300088610846006940F00500086170474FF086
:10064000E021096921F001014FF0E022116111461A
:1006500049699269891A0F4AB1FBF2F070470000AC
:100660000600020000100240000001400B4BB3B333
:100670000008014003003037004033FF000C014008
:10068000BB74B7BB0010014004080140BC0121420B
:10069000B8012142401901008A688260CA68C260BC
:1006A0008A6A42600022026000234A6843EA02121A
:1006B0000B6942EA43124B6942EA83128B6942EAB0
:1006C000C312CB6942EA03220B6A42EA83220B6817
:1006D000C3F1030342EA03324B6A42EA4302026077
:1006E000026842F0010202607047026822F00102D3
:1006F00002604160026842F001020260704700B58A
:100700008BB001200090002001900B4802900B4814
:100710000390002005900120069007900890062085
:100720000A90002009900120049069460448FFF7D0
:10073000B3FF0BB000BD00004C2401404C00002072
:10074000080002400020674908606749C1F890012D
:100750004FF4FA60654908804FF000004FF0804187
:10076000A1F828086248008846F2600140EA0100CA
:100770004FF08041A1F81C080846B0F8200840F46A
:100780008850A1F820080846B0F8000840F0810021
:10079000584908804FF00000574908804FF08041C9
:1007A000A1F84008704755490978884200D1704740
:1007B0005249087060B95249098821F400714FF01C
:1007C0008042A2F820184FF00001464A11600CE068
:1007D0004B49098841F400714FF08042A2F820187B
:1007E0004FF001013F4A116000BF00BF00BFDEE7CC
:1007F00000B50346002B03DA0120FFF7D4FF02E027
:100800000020FFF7D0FF3F48008818443A4908808D
:1008100000BD3D490978884200D170473A490870C7
:1008200060B93749098821F400514FF08042A2F89D
:1008300020184FF00001354A11600CE0304909885A
:1008400041F400514FF08042A2F820184FF001010E
:100850002E4A116000BF00BF00BFDEE700B50346AF
:10086000002B03DA0120FFF7D4FF02E00020FFF79E
:10087000D0FF2748008818442649088000BD10B5DD
:1008800002461046002916DD0844B0F5FA6F06DD71
:100890004FF4FA631F4C2380A0F5FA6003E01D4C6F
:1008A00020804FF00000531A181A002800DA0020A8
:1008B000114C208015E0401AB0F5FA6F06DD4FF4B8
:1008C000FA630D4C2380A0F5FA6003E00A4C208007
:1008D0004FF000005318181A002800DA00200D4CC1
:1008E000208010BD94812142008021422C080040CC
:1008F0001C080040000800403C0800401800002090
:10090000200800401400002019000020908121429E
:10091000160000204008004005210902294A1068FD
:100920004FF6FF0200EA0200274A40EA020040EACE
:1009300001004FF0E022C2F80C0D7047F0B50C46F4
:1009400015460346C71700EB9777C7F38706C71707
:1009500000EB9777BF10A0EB8707FAB2042303EBF5
:10096000C203DAB2A10005F00303194301F00F013D
:1009700000BF00F01F070123BB4047094FF0E02CE8
:100980000CEB8707C7F8003100BF104B9B5D01FAE5
:1009900002F73B43DFB20D4B9F55F0BD0C4A0A40B6
:1009A00002430C4B1A60704700B500214FF0006005
:1009B000FFF7F4FFFFF7B0FF032201212620FFF726
:1009C000BDFF00BD0CED00E00000FA0500E400E012
:1009D00080FFFF1F08ED00E02DE9F84F80468946B3
:1009E0004FEA0810B9FBF0F64FEA081000F022FEBB
:1009F0000446484600F01EFE0546214600F038FD3C
:100A00008246304600F016FE0446514600F0F9FEDC
:100A100082464FF08341504600F020FE8246504609
:100A200000F0E8FD0746384600F004FE514600900D
:100A300000F0E7FE834600F08DFC04460022574B91
:100A400000F052FC01D8012000E000200744102FE4
:100A500001D10027761C36013E433046BDE8F88FB1
:100A600010B54F494FF41650FFF7B6FF4D490880B7
:100A70004FF008004FF04021A1F8180442F22C007A
:100A8000494908804FF0000001F10401088001F19C
:100A90000401088045494FF41650FFF79DFF444973
:100AA00008804FF008004349088042F22C00424978
:100AB000A1F80C0810BD00BF0A8812F0800FFBD00F
:100AC0008880704710B503460C4604E013F8010B0C
:100AD0002146FFF7F0FF18780028F7D110BD3EB58A
:100AE00003460D460024002B05DADB435B1C294638
:100AF0002D20FFF7E0FF00BF0A2093FBF0F100FB81
:100B00001130C2B22046611CCCB20DF800200A2080
:100B100093FBF0F00300EFD106E01DF80410303134
:100B2000C8B22946FFF7C7FF2000A4F10101CCB2EB
:100B3000F3D13EBD2148006850B901201F4908602B
:100B40001948008840F400504FF04021A1F80C04EF
:100B5000704730B505460C46154908392846FFF759
:100B6000B1FF134908392046FFF7B9FF104908398A
:100B700013A0FFF7A7FF30BD1248008810F0200F28
:100B80000AD0114800881148D0F8BC0108B90120EA
:100B900000E000200E490860704700000000E03FC0
:100BA00000512502084400400C44004000A24A04C1
:100BB0000838014018380140003001401C00002076
:100BC0000D0A00000044004004440040000021429F
:100BD000BC01214210B504462046FFF750FC2B49CA
:100BE00021F81400084630F81400294931F814108F
:100BF000884210DD254830F81400254921F81400FA
:100C0000084630F81400234931F81410401A2249DC
:100C100021F8140016E01D4830F814001D4931F881
:100C2000141088420EDA194830F81400194921F8D6
:100C30001400174830F8140031F81410401A1649FF
:100C400021F81400114830F81400124931F814103A
:100C5000401A4002104931F8141090FBF1F00B4992
:100C600021F8140010BD00200CE04FF4FA61084A8E
:100C700022F810104910074A22F81010064A22F8EC
:100C80001010401C0328F0D37047000032000020F1
:100C900020000020260000202C000020AE488068A4
:100CA00040F48050AC498860AC48006840F00800CF
:100CB000C1F800040846D0F8040440F00800C1F868
:100CC00004040846D0F80C0440F00800C1F80C04F5
:100CD0004FF08040B0F80C0440F00100A0490880BB
:100CE0004FF000009F49088044F24F6001F1040179
:100CF00008804FF001004FF08041A1F82C044FF024
:100D00008040B0F8000440F09000A1F800040846CC
:100D1000B0F8100420F0010093490880704710B526
:100D200092480068F0BB9248008820F001004FF024
:100D30008041A1F800048F480068D8B18E4800783F
:100D40008E498F4A127888548D4800781F280BD11D
:100D50000120FFF7FAFB012084490860002089493F
:100D600008608449086022E085480078401C844976
:100D700008701CE0804800781A2803D07E4800786C
:100D80001B2805D100207E490870012079490860A0
:100D900079480078162803D077480078172806D1BC
:100DA000012000E011E077490860704908600020E8
:100DB000714908706D48006838B96D48008840F086
:100DC00001004FF08041A1F800046F48006840F036
:100DD00008006149C1F8140410BD78B5634D2D6851
:100DE0007DB30024674D2D6855BB002016E001211E
:100DF0000DE02546661CF4B2604E735D032B01DDE9
:100E000042F08002082900DA52104D1CE9B208298C
:100E1000EFDD0DF800200022451CE8B20428E6DBD7
:100E20009DF80350ED43EDB28DF803509DF802504C
:100E30009DF80360B54205D19DF80250534E3570C0
:100E400003E068E00025514E3570504D2D78402D5F
:100E500045D015DC152D45D009DCA5F10705072D7A
:100E600052D2DFE805F04033415151224F00162D98
:100E70003BD0182D25D0192D32D01C2D44D126E081
:100E80004A2D28D008DCA5F14205062D3CD2DFE82A
:100E900005F0202825233B24522D1BD05A2D17D096
:100EA0005E2D0FD0FF2D2FD12DE00125384E35803E
:100EB000384D2D680DB9012500E00025354E35600F
:100EC00023E022E00325324E35801EE01DE01CE0C9
:100ED0001BE01AE019E018E017E016E015E014E056
:100EE00013E012E011E010E00FE02A4D2D680DB97B
:100EF000012500E00025274E35604FF00005244E07
:100F0000358002E001E000E000BF00BF0025174E81
:100F100035601C4E356078BD1348008820F0010014
:100F20004FF08041A1F81004134800781B280BDD16
:100F30000020104908600E48008820F001004FF0A2
:100F40008041A1F8000470470B480078401C0A4912
:100F5000087000BFF7E700000000014000040140F6
:100F60000C04004024040040100400403C00002019
:100F700000040040440000204000002058000020F1
:100F800048000020380000201404014049000020DF
:100F90004A000020BC01214200240027A246A346AB
:100FA0004FF496684FF00F0940F29E7500BF00BFE6
:100FB000FFF78EFAFFF7F6F9FFF752FDFFF7C2FBD6
:100FC000FFF79DFBFFF7F0FC7820FFF7DEFAA7E0C4
:100FD0005448008820B101282AD0032876D196E011
:100FE0000020FFF74CFA504908600120FFF747FA4C
:100FF0004D4948600220FFF742FA4B498860084695
:101000008068092804D9084680680938886002E0A9
:101010000020454988604448806840024249886011
:101020008868FFF7E5FB40498868FFF717FC77E021
:101030000020FFF7CFFD0120FFF7CCFD0220FFF7D6
:10104000C9FD39484068192811D9B5F5FA6F00DA99
:101050006D1C35480068192804D933484068C0F52C
:10106000007421E030484068A0F500741CE02E4870
:101070000068192804D92C480068C0F5806413E082
:1010800029488068192804D927488068A0F5806419
:101090000AE040F2A460854200DD6D1E002C01DAFA
:1010A000224C01E04FF48064B9F1000F02D0A9F1A5
:1010B00001090DE04FF00F09192C02DC14F1190F92
:1010C00005DA142094FBF0F0074401E026E0002745
:1010D000B8F1000F02D0A8F1010804E04FF49668BF
:1010E000A4EB0B0AA346C82097FBF0F004EB4401E5
:1010F00001EBC4010844CAEB0A1100EBC1061C2035
:1011000096FBF0F631462846FFF7B9FB06E00020D3
:10111000FFF76EFB0020FFF7A1FB00BF00BF00BF81
:1011200056E700004A0000203200002000FCFFFFCC
:10113000704770477047754600F028F8AE460500C6
:101140006946534620F00700854618B020B5FFF7E2
:101150002BF8BDE820404FF000064FF000074FF09D
:1011600000084FF0000B21F00701AC46ACE8C009C5
:10117000ACE8C009ACE8C009ACE8C0098D467047CE
:101180000446AFF300802046FEF7F9FF00487047A1
:101190007800002001487047704700BF7C000020A5
:1011A00001491820ABBEFEE7260002007047491037
:1011B00058BFC1F140415B1058BFC3F140438B425F
:1011C000EFF300807047000051EA030C17D41CF5C0
:1011D000801F58BFBCF5801F00F10680994218BFE0
:1011E000704708BF9042704707D711F5801F58BF5E
:1011F00013F5801F19D499427047894270471CF536
:10120000801F08D5BCF5801FF7D58B4218BF7047EB
:1012100008BF824270474FF4001C1CEB410F38BFDF
:101220001CEB430F01D28B42704770B500F008F8F9
:10123000922449004FF000514FF08053FFF7B7BFA1
:101240000EF1020E2EF0030E5EF8046B364205D44A
:10125000012A43EB030515F5001F12D8012841EBC5
:10126000010C1CF5001F0CD80ED14FEAD17C15F5EE
:10127000001F0CEB4C0C0CF1020C08BF4CEBD37CA8
:1012800004E04FF0080C01E04FEAD37C0CEB4C0576
:1012900026FA05F606F00706B6F1040C06D20EEBA8
:1012A000860CBDE870404CF0010C6047DFE80CF0A4
:1012B000090B02024FF000414FF00000A1F50021A0
:1012C00070BD19461046012851EB010418BFD4F532
:1012D000001484BF002001F0004170BD0808A0F593
:1012E00000114FEA3101704753EA010C17D41CF585
:1012F000801F58BFBCF5801F00F106808B4218BFCD
:10130000704708BF8242704707D713F5801F58BF48
:1013100011F5801F19D48B4270479B4270471CF512
:10132000801F08D5BCF5801FF7D5994218BF7047BC
:1013300008BF904270474FF4001C1CEB430F38BFAE
:101340001CEB410F01D2994270470FB40CBC03BC97
:10135000FFF76BBF43004FEAD30C4FEA3C0C43400E
:101360001FBF40070CF1605113F0FE4F70471CF097
:10137000006F03D100200CF0004170470CF00043D7
:1013800043EA507010B540EACC0000F0E8F900BF25
:10139000000000924FEA0001FFF7A0BF4FF00041AC
:1013A0004FF00000A1F500217047000090EA010F06
:1013B00048BF81F0004100F13682421A3CBF801ADA
:1013C00089184FEAD0524FF07F4C1CEA410FA2EB34
:1013D000D15318BF9CEA026F00F03B804FF0004CE5
:1013E0004CEA00204CEA012121FA03FC10EB0C0C22
:1013F0001ED202F1FF325FEA1C2040EBC25038BF20
:1014000070471CF07F0F4FEA400C18BFBCF17F4FB4
:1014100038BF7047C3F12003994008BF20F0010096
:10142000BCF17F4F38BF7047A0F1C04000F0E4B975
:101430004FEA3C00000A40EBC25028BF1CF0FF0FEF
:101440004FEA400CE6D018BFBCF17F4F38BF704761
:10145000EAE79CEA026F05D010EA5C0F08BF00F0D3
:101460000040704710B500F07AF900BF64FBBE3E43
:101470004FF47F0C1CEAD0121EBF1CEAD11392EA73
:101480000C0F93EA0C0F00F0858090EA010F48BF23
:1014900042F4807240F4000C41F400002CF07F41D3
:1014A00020F07F4000B58142A2EB03020FF2081C3E
:1014B000ACEB504EC0F100009EF800E04FEA4E0E3B
:1014C00000FB0EFC38BF49004FEA2C1C02F5FA0263
:1014D0000CFB0EF34FEACE1E4FEA112C4FEAC1214E
:1014E0000EEB635E42EB22420EFB0CFC4FEA1C53F8
:1014F00000FB03114FEA112C4FEA01310EFB0CFCEB
:101500004FEADC4C00FB0C11C14228BF09184CEB20
:1015100003335DF804EB10EB410143EBC250B2F52D
:101520007C0F38BF704729D512F0F00F1CBF00F1B7
:10153000C04000F000407047008182838485868728
:1015400088898B8C8D8E8F919293959697999A9C82
:101550009D9FA0A2A3A5A7A8AAACAEB0B2B3B5B7F1
:10156000B9BCBEC0C2C5C7C9CCCED1D4D7D9DCDFC7
:10157000E2E6E9ECF0F3F7FAFE0000004FEA400C77
:101580000CF1807CBCF17E4F28BF7047B0F1C040A9
:1015900000F032B990EA010F0CEAD11348BF42F4CF
:1015A0008072624538BF634507D213F47F0F16D0AF
:1015B00080EA010000F00040704710B500F0CFF85D
:1015C000097EFC3E00F005B880EA010000F0004012
:1015D000704780EA010000F0004000F00DB912F4FD
:1015E0007F0F04BF0248704780EA010000F004B991
:1015F0000000C07FC10DD1F19E0206DB4FEA00233F
:1016000043F0004323FA02F07047004207D54FEA47
:101610004001B1F1FE4F02D24FF00000704710B50B
:1016200000F09DF849922480002070476FEA200066
:1016300070470000B0FA80F310FA03F2C3F19D0383
:101640000AD0D90501EB1220530638BF704700F1CC
:10165000010008BF20F00100704700004FF47F0C2C
:101660001CEAD0121EBF1CEAD11392EA0C0F93EAB7
:101670000C0F00F0478090EA010F48BF42F48072DF
:101680004FF0004C4CEA00204CEA012102EB03022F
:10169000A0FB0113A2F50002002918BF43F00103CB
:1016A0005B0028BF4FEA330342EB22425FEA132C70
:1016B0004CEBC2502EBFBCEB436FB2F57C0F7047B2
:1016C0004FEA036CBCF1004F08BF20F00100B2F5F7
:1016D0007C0F38BF70470BD582F0FF0212F5803FB8
:1016E000C8BF704700F1C040D8BF00F0004070474D
:1016F00000F5000C5FEA4C0C48BF7047B0F1C040E9
:1017000000F07AB890EA010F0CEAD11348BF42F416
:101710008072624538BF634504D280EA010000F060
:101720000040704710B500F01AF800BF8900013E74
:1017300000F007B800F009B85FEA410C5FEA1C6CE2
:1017400008D080EA010000F057B85FEA400C5FEA79
:101750001C6CF6D14FF00040A0F5800070470EF1F0
:10176000020E2EF0030E5EF8044B244204D44FEA1E
:101770004102B2F17F4F11D84FEA4003B3F17F4FDE
:101780000CD80ED14FEAD07CB2F17F4F0CEB4C0C51
:101790000CF1020C08BF4CEBD17C04E04FF0080CBC
:1017A00001E04FEAD17C0CEB4C0324FA03F404F083
:1017B0000704B4F1040C06D20EEB840CBDE8104013
:1017C0004CF0010C6047DFE80CF0070802024FF014
:1017D0000040A0F5800010BD0846420018BFD2F1BD
:1017E000807288BF00F0004010BD10B5FFF7D2FC3A
:1017F0004FF00001016010BDFF2141EAD050C0054B
:10180000704780F0004090EA010F7FF5D6AD81F07F
:10181000004100F008B8000090EA010F48BF81F0D5
:1018200000413FF5CAAD421A04D882F00042A0EB55
:10183000020011444FEAD0524FF07F4C1CEA410F96
:10184000A2EBD15318BF9CEA026F4AD04FF0004C74
:101850004CEA00204CEA012121FA03FCB0EB0C0C0D
:101860000FD412F0FE0F36D05FEA4C001DD50012E7
:1018700040EBC25038BF70471CF03F0F18BF704795
:101880000BE0A2F101025FEA1C2040EBC25038BF1E
:1018900070471CF07F0F18BF7047C3F120039940B9
:1018A00014BF401E20F00100704780084FEA122349
:1018B00008BF7047B0FA80FCA2EB0C02CCF1280CF8
:1018C00060FA0CF093EA122F04BF00EBC25070478D
:1018D0004FEAC3707047130A5FEADC1008BF704715
:1018E000F6E79CEA026F04D010EA5C0F08BF002004
:1018F000704710B5FFF733FF40DFF63E81F0004040
:101900007047000024190008000000204C0000006F
:1019100028010008701900084C0000208C06000007
:101920004401000800A24A0400000000000000007A
:10193000010203040607080900000000000000007F
:1019400001000000D007D007D007E803E803E80350
:10195000E803E803E80300000000000000000000C6
:101960000000000000000000000000000000000077
:04000005080000ED02
:00000001FF
